:020000040040BA
:10000000008000200121400010224000102240000A
:100010001022400010224000102240001022400018
:1000200010224000102240001022400031224000E7
:1000300010224000102240001022400011234000F6
:1000400010224000102240001022400010224000E8
:1000500010224000102240001022400010224000D8
:100060003131400051314000102240001022400048
:1000700010224000102240001022400010224000B8
:1000800010224000102240001022400010224000A8
:100090001022400010224000102240001022400098
:1000A0001022400010224000102240001022400088
:1000B0001022400010224000102240001022400078
:1000C0001022400010224000102240001022400068
:1000D00070B5002482B002F08BFD02F089F914485B
:1000E000214602F00DFE03F07BFF4FF496614022A3
:1000F000104B0094104802F033FB00940F484FF46B
:10010000966140220E4B02F02BFB40F6E4460D4D6B
:100110002C68012206FB04F4002CB8BF04F6FF741F
:100120002413034808491346009403F069FDEFE7E0
:1001300044120020C140400080170020C01200205F
:10014000813F4000781700208074400000000000CC
:1001500081F0004102E000BF83F0004330B54FEA78
:1001600041044FEA430594EA050F08BF90EA020FE5
:100170001FBF54EA000C55EA020C7FEA645C7FEA78
:10018000655C00F0E2804FEA5454D4EB5555B8BF9B
:100190006D420CDD2C4480EA020281EA030382EA0C
:1001A000000083EA010180EA020281EA0303362D9E
:1001B00088BF30BD11F0004F4FEA01314FF4801C71
:1001C0004CEA113102D0404261EB410113F0004F83
:1001D0004FEA03334CEA133302D0524263EB43033A
:1001E00094EA050F00F0A780A4F10104D5F1200ED8
:1001F0000DDB02FA0EFC22FA05F2801841F1000133
:1002000003FA0EF2801843FA05F359410EE0A5F106
:1002100020050EF1200E012A03FA0EFC28BF4CF037
:10022000020C43FA05F3C01851EBE37101F00045ED
:1002300007D54FF0000EDCF1000C7EEB00006EEBFA
:100240000101B1F5801F1BD3B1F5001F0CD3490884
:100250005FEA30004FEA3C0C04F101044FEA4452DB
:1002600012F5800F80F09A80BCF1004F08BF5FEA62
:10027000500C50F1000041EB045141EA050130BD42
:100280005FEA4C0C404141EB010111F4801FA4F1E5
:100290000104E9D191F0000F04BF01460020B1FA3A
:1002A00081F308BF2033A3F10B03B3F120020CDA72
:1002B0000C3208DD02F1140CC2F10C0201FA0CF050
:1002C00021FA02F10CE002F11402D8BFC2F1200CB5
:1002D00001FA02F120FA0CFCDCBF41EA0C0190406B
:1002E000E41AA2BF01EB0451294330BD6FEA0404B4
:1002F0001F3C1CDA0C340EDC04F11404C4F120029F
:1003000020FA04F001FA02F340EA030021FA04F3B0
:1003100045EA030130BDC4F10C04C4F1200220FA07
:1003200002F001FA04F340EA0300294630BD21FA45
:1003300004F0294630BD94F0000F83F4801306BF0B
:1003400081F480110134013D4EE77FEA645C18BFFF
:100350007FEA655C29D094EA050F08BF90EA020F96
:1003600005D054EA000C04BF1946104630BD91EA8E
:10037000030F1EBF0021002030BD5FEA545C05D191
:100380004000494128BF41F0004130BD14F58004D0
:100390003CBF01F5801130BD01F0004545F0FE4144
:1003A00041F470014FF0000030BD7FEA645C1ABF79
:1003B000194610467FEA655C1CBF0B46024650EAB0
:1003C000013406BF52EA033591EA030F41F40021DC
:1003D00030BD00BF90F0000F04BF0021704730B562
:1003E0004FF4806404F132044FF000054FF0000137
:1003F00050E700BF90F0000F04BF0021704730B5F8
:100400004FF4806404F1320410F0004548BF4042CC
:100410004FF000013EE700BF42004FEAE2014FEA21
:1004200031014FEA02701FBF12F07F4393F07F4FFC
:1004300081F06051704792F0000F14BF93F07F4F2E
:10044000704730B54FF4607401F0004521F0004171
:1004500020E700BF50EA010208BF704730B54FF0F7
:1004600000050AE050EA010208BF704730B511F0FC
:10047000004502D5404261EB41014FF4806404F134
:1004800032045FEA915C3FF4DCAE4FF003025FEAB6
:10049000DC0C18BF03325FEADC0C18BF033202EB3E
:1004A000DC02C2F1200300FA03FC20FA02F001FA98
:1004B00003FE40EA0E0021FA02F11444C1E600BF37
:1004C00070B54FF0FF0C4CF4E06C1CEA11541DBFEA
:1004D0001CEA135594EA0C0F95EA0C0F00F0DEF8B5
:1004E0002C4481EA030621EA4C5123EA4C5350EA9A
:1004F000013518BF52EA033541F4801143F48013EB
:1005000038D0A0FB02CE4FF00005E1FB02E506F07B
:100510000042E0FB03E54FF00006E1FB03569CF0D0
:10052000000F18BF4EF0010EA4F1FF04B6F5007FD6
:1005300064F5407404D25FEA4E0E6D4146EB060648
:1005400042EAC62141EA55514FEAC52040EA5E50D1
:100550004FEACE2EB4F1FD0C88BFBCF5E06F1ED87B
:10056000BEF1004F08BF5FEA500E50F1000041EBB2
:10057000045170BD06F0004646EA010140EA02005F
:1005800081EA0301B4EB5C04C2BFD4EB0C0541EA81
:10059000045170BD41F480114FF0000E013C00F396
:1005A000AB8014F1360FDEBF002001F0004170BDBA
:1005B000C4F10004203C35DA0C341BDC04F11404D3
:1005C000C4F1200500FA05F320FA04F001FA05F25F
:1005D00040EA020001F0004221F0004110EBD3702C
:1005E00021FA04F642EB06015EEA430E08BF20EA58
:1005F000D37070BDC4F10C04C4F1200500FA04F3FB
:1006000020FA05F001FA04F240EA020001F000418C
:1006100010EBD37041F100015EEA430E08BF20EAFF
:10062000D37070BDC4F1200500FA05F24EEA020E47
:1006300020FA04F301FA05F243EA020321FA04F076
:1006400001F0004121FA04F220EA020000EBD3702D
:100650005EEA430E08BF20EAD37070BD94F0000F2D
:100660000FD101F00046400041EB010111F4801F61
:1006700008BF013CF7D041EA060195F0000F18BF12
:10068000704703F00046520043EB030313F4801F4E
:1006900008BF013DF7D043EA0603704794EA0C0F08
:1006A0000CEA135518BF95EA0C0F0CD050EA41061E
:1006B00018BF52EA4306D1D181EA030101F000419B
:1006C0004FF0000070BD50EA410606BF10461946C3
:1006D00052EA430619D094EA0C0F02D150EA0136CF
:1006E00013D195EA0C0F05D152EA03361CBF104610
:1006F00019460AD181EA030101F0004141F0FE41AF
:1007000041F470014FF0000070BD41F0FE4141F432
:10071000780170BD70B54FF0FF0C4CF4E06C1CEA32
:1007200011541DBF1CEA135594EA0C0F95EA0C0FE7
:1007300000F0A7F8A4EB050481EA030E52EA0335A2
:100740004FEA013100F088804FEA03334FF08055C3
:1007500045EA131343EA12634FEA022245EA1115F0
:1007600045EA10654FEA00260EF000419D4208BFA1
:10077000964244F1FD0404F5407402D25B084FEA4E
:100780003202B61A65EB03055B084FEA32024FF4FA
:1007900080104FF4002CB6EB020E75EB030E22BF57
:1007A000B61A754640EA0C005B084FEA3202B6EB17
:1007B000020E75EB030E22BFB61A754640EA5C00C6
:1007C0005B084FEA3202B6EB020E75EB030E22BF56
:1007D000B61A754640EA9C005B084FEA3202B6EB57
:1007E000020E75EB030E22BFB61A754640EADC0016
:1007F00055EA060E18D04FEA051545EA16754FEA78
:1008000006164FEAC30343EA52734FEAC2025FEA95
:100810001C1CC0D111F4801F0BD141EA00014FF024
:1008200000004FF0004CB6E711F4801F04BF0143F5
:100830000020B4F1FD0C88BFBCF5E06F3FF6AFAE11
:10084000B5EB030C04BFB6EB020C5FEA500C50F1A1
:10085000000041EB045170BD0EF0004E4EEA113124
:1008600014EB5C04C2BFD4EB0C0541EA045170BD2B
:1008700041F480114FF0000E013C90E645EA060E6F
:100880008DE60CEA135594EA0C0F08BF95EA0C0F9D
:100890003FF43BAF94EA0C0F0AD150EA01347FF4E5
:1008A00034AF95EA0C0F7FF425AF104619462CE7BC
:1008B00095EA0C0F06D152EA03353FF4FDAE10461F
:1008C000194622E750EA410618BF52EA43067FF470
:1008D000C5AE50EA41047FF40DAF52EA43057FF400
:1008E000EBAE12E700000000000000000000000076
:1008F0004FF0FF3C06E000BF4FF0010C02E000BFEC
:100900004FF0010C4DF804CD4FEA410C7FEA6C5CCE
:100910004FEA430C18BF7FEA6C5C1BD001B050EA71
:10092000410C0CBF52EA430C91EA030F02BF90EA5C
:10093000020F0020704710F1000F91EA030F58BF1B
:10094000994208BF90422CBFD8176FEAE37040F07D
:10095000010070474FEA410C7FEA6C5C02D150EA1B
:10096000013C07D14FEA430C7FEA6C5CD6D152EAD6
:10097000033CD3D05DF8040B704700BF844610469B
:1009800062468C461946634600E000BF01B5FFF79A
:10099000B7FF002848BF10F1000F01BD4DF808ED6A
:1009A000FFF7F4FF0CBF012000205DF808FB00BF3B
:1009B0004DF808EDFFF7EAFF34BF012000205DF895
:1009C00008FB00BF4DF808EDFFF7E0FF94BF0120E2
:1009D00000205DF808FB00BF4DF808EDFFF7CEFFE3
:1009E00094BF012000205DF808FB00BF4DF808ED22
:1009F000FFF7C4FF34BF012000205DF808FB00BFF3
:100A00004FEA4102B2F1E04324BFB3F5001CDCF130
:100A1000FE5C0DD901F0004C4FEAC0024CEA507068
:100A2000B2F1004F40EB830008BF20F00100704797
:100A300011F0804F21D113F13872BCBF01F000409A
:100A4000704741F480114FEA5252C2F11802C2F1CC
:100A5000200C10FA0CF320FA02F018BF40F001004D
:100A60004FEAC1234FEAD32303FA0CFC40EA0C00FF
:100A700023FA02F34FEA4303CCE77FEA625307D13C
:100A800050EA01331EBF4FF0FE4040F44000704773
:100A900001F0004040F0FE4040F40000704700BF0D
:100AA00003685A004CBF43F0004323F0004318444E
:100AB000704700BF2DE9F04F83B099B34B1E174626
:100AC000054698460193002606EB080404EBD4740F
:100AD00064104FEAC40A05EB0A0B5846FFF7E0FF23
:100AE000019B8146A3420AF1080028440ED0FFF77B
:100AF000D7FFB94500F1FF3004D9B4420CD004F15E
:100B0000FF38E1E7B84203D2661CDDE7B945F4D807
:100B1000584603B0BDE8F08F4FF0000B584603B0C5
:100B2000BDE8F08F8B46584603B0BDE8F08F00BF9C
:100B3000012807D0022807D0044B00280CBF184614
:100B40000020704702487047024870474512400035
:100B5000491240004D12400030B5254B83B0044689
:100B60008D1E7BB3284601A9AFF3008020B3019905
:100B70002A46FFF79FFF0546F0B1FFF791FF6B682C
:100B8000A064012B12D0002B05F1040021DBFFF73C
:100B900087FF0023E06423650368002B1DDBFFF75C
:100BA0007FFF00232061184603B030BD002323617E
:100BB0000523184603B030BD0023236109231846DE
:100BC00003B030BD0B490C4B0846591AC9100191AE
:100BD000CEE70123E0642365DEE7C3F30360FFF79C
:100BE000A7FF002820610CBF09230023DBE700BF1B
:100BF00000000000B8754000A8764000036810B5FA
:100C0000DA07044606D49B0700F1480009D500F036
:100C10008BFC2368590709D51A070ED5DB0613D5B7
:100C200010BD00F079FC23685907F5D404F1D00019
:100C300000F082FC23681A07F0D404F5A87000F0D5
:100C400083FC2368DB06EBD404F5E870BDE81040B4
:100C500000F0BEBC03680BB11844704718467047DB
:100C600009207047704700BF70B504460D4608E084
:100C70002A6C23696261012021462A469847082888
:100C800008D12046296CFFF767FF06460028EFD001
:100C900003F036FE0728FBD13046296CFFF7E2FF50
:100CA000281D00F02DFC00BF2DE9F0470646ADF5EC
:100CB000727D03AD0C1D17460FCC0FC50FCC0FC5B1
:100CC0000FCC0FC594E80F0002AC4FF0000ED6F821
:100CD0000C80D6F8189085E80F003046216CC4F8D7
:100CE00000E0FFF739FF0546002F0CBF09270A2750
:100CF0007DB1A36B47F010018DE810020120636401
:100D000032463346C04778BB28460DF5727DBDE8B4
:100D1000F087236C214673614FF4F0727AA800F0DB
:100D200087FE336931467AAA38469847889B8246BF
:100D30008DE8100239466364012032463346C047CD
:100D400090B920467AA94FF4F07200F071FEBAF122
:100D5000080F06D13046216CFFF7FEFE0927054635
:100D6000C6E7BAF1070F04D009200DF5727DBDE882
:100D7000F0872846216CFFF775FF03A800F0C0FB41
:100D8000406C7047F0B5CB6BF9B00B640E1D01AD34
:100D90000F4604460FCE0FC50FCE0FC50FCE0FC5A1
:100DA00096E80F004FF0FF3685E80F00009606E04A
:100DB000236921466A4698470828054608D12046F7
:100DC0001099FFF7C9FE0028F2D0092079B0F0BDD4
:100DD0006846FFF713FF062DF7D120463946FFF787
:100DE00043FF00BF30B4DD6BC160826119461D64F2
:100DF000002230BC58E700BF70B54369C66804469E
:100E00000D460B6426B10122FFF74EFF03F078FD7B
:100E10000369214602202A469847072807D0082858
:100E200003D120462946FFF71FFF03F069FD304636
:100E3000296CFFF717FF281D00F062FBC26832B172
:100E400010B4CC6B00220C645DF8044B2CE799E7DE
:100E5000704700BF836813B10146012018477047EF
:100E600000B5042907D8DFE801F0030906090900E5
:100E70000BB90F2A05D902205DF804FB01205DF8AB
:100E800004FB00EB820252681846019B1A605DF871
:100E900004FB00BF00B585B00A4603AB00210093F8
:100EA0000B46FFF7DDFF039805B05DF804FB00BFBC
:100EB00000B5042907D8DFE801F003090609090095
:100EC0000BB90F2A05D902205DF804FB01205DF85B
:100ED00004FB019900EB82020968184651605DF835
:100EE00004FB00BF10B50C4684B004AB43F8042DDE
:100EF0000021009322460B46FFF7DAFF04B010BD35
:100F0000F0B5D36BADF50F7D1364151D17AC074617
:100F10000E460FCD0FC40FCD0FC40FCD0FC495E8F3
:100F20000F004FF0FF3584E80F00169511E016A86A
:100F30006A46FFF7D7FF16A83146B84780B9049B29
:100F40000820694616AA98470528044609D00928AA
:100F500006D026996846FFF7FFFD0C210028E6D051
:100F6000092416A8FFF74AFE20460DF50F7DF0BDB7
:100F70002DE9F04FCC6C904622688BB004340D46BE
:100F80000792089400F003091E46002B64D1120258
:100F9000032307928DF825608DF824302B6DB9F16D
:100FA000020F08BFAC6B13F0010343D100F008003F
:100FB000C2B2039201932768002F3DD0022E47D082
:100FC0002788B4F802A00434AB6C2AF0010B404629
:100FD0000F219B44FFF75EFF834537D827F00103BD
:100FE0009B4458452CBF002001200AF0010A07F05D
:100FF000010747EA4A0ABAF1010F43D03AD3BAF1DE
:10100000020F1FD1236823F000420292B9F1000FB2
:101010007BD138B1039A002A00F08380029A002A1B
:1010200000F0A680002B7ADB029B03F1010A04EB9F
:101030008A04C0E700230193022E40DDFFF710FE73
:10104000002842D009200BB0BDE8F08F0020CCE78B
:10105000D4F804A00834B7E7022B9FDC130CDFB2EE
:10106000120402218DF8253004EB870407928DF8D5
:10107000241093E7B9F1000F02D0002840F0AD80B2
:10108000043498E7B9F1000F26D1B0B194E80C0010
:10109000D70F9A1CD6D005F158020133069200F002
:1010A0009280201DFFF7D6FD3A46014606AB284642
:1010B000AFF30080002840F0B58008347BE740465D
:1010C00007A900F021FB0028BCD1019B002B59D1BE
:1010D00008200BB0BDE8F08F40460D212F6AFFF7C6
:1010E000D9FE8742E9D1AB6A9C42E6D12046FFF7A0
:1010F000D7FC0F2102464046FFF7F4FE40462A4641
:101100000021FFF7EFFE07209DE740460D212F6AE3
:10111000FFF7C0FE874245D02368002B84DA0434F1
:1011200082E7029B23B305F158030596039F04F160
:10113000040ADDF808B0CDF810901E4602E0D9454B
:101140004F4615D050460696FFF784FD0022014613
:1011500006AB2846AFF3008007F101090AF1040A43
:101160000028ECD0029BDDF810909F42059ED3D161
:1011700040460D21FFF78EFE069B2862AC626B6233
:10118000062060E70F214046FFF784FE0E2102464D
:101190004046FFF7A7FE40460F21294AFFF7A2FE6F
:1011A000072050E7AB6A9C42B6D10422029900277F
:1011B000A318A962EF622A636B632368BB421FDB3B
:1011C0000123019330E740460D21FFF763FE2862BB
:1011D000069B6B62AC62062035E72046FFF760FC99
:1011E00004340646AC632846AFF3008000283FF481
:1011F00029AF404632460F21FFF774FE072022E751
:101200000846013004EB8000FFF74AFC0F2102463C
:101210004046FFF767FE404639462A46FFF762FE22
:10122000072010E707460D214046FFF733FE022F47
:101230002862CDD12B46069A43F82C2F6B62C9E762
:1012400000000000002393E6012391E602238FE6CD
:10125000F0B50546C5B004290CD8DFE801F0560307
:101260000B300E00012B4FEA124496B265D0052BCD
:1012700000F08380022045B0F0BD002BFAD1102A87
:10128000F8D82B68DC0600F1E98022AE30460192E6
:1012900000F0A8F9A86B019A0023012404FA03F1D5
:1012A000114203D00168043046F823100133042BA7
:1012B000F4D1A863304600F08BF90020DBE7032B64
:1012C000D8D1140C97B23B19102BD3D82B681E071A
:1012D00000F1E48022AE30467F0000F057F906EBC3
:1012E000C4027B1EAC6B57B12146043A51F8040B83
:1012F000013B42F8040F581CF8D104EB8704304638
:10130000AC6300F021F90020B5E7002BB2D1AC6B43
:1013100097B2281D012606FA03F1394203F10103B1
:1013200002D0216804340160102B00F10400F2D1D6
:1013300012F400501FD1AC639DE73219102A99D8DE
:101340000F2C97D829680027C80754D422A80193E6
:1013500000F0E6F8019B19E008463746012B00F043
:1013600097800F2CA86302D822A800F0DDF817B1EF
:1013700002A800F0E1F800207DE73719202F3FF6A2
:1013800079AF0F2C30D93746002E44D1A96B3246A5
:10139000002EE1D000278E4644A84FEA420C00EB15
:1013A000C4000CF1FF328C385EF8046B013A40F84F
:1013B000046F561CF8D101EB8C00002FCED02246D2
:1013C000102C44A938BF102201EBC202A2F5C4724E
:1013D00001467800043A01EB800051F8046B814229
:1013E00042F8046FF9D1B9E7102F41D92A68103FAC
:1013F000D007114610D521F00102052B2A60019378
:1014000028465BD021F0030140F8481B00F088F823
:10141000019B002F4AD02A6851075BD4012B63D06F
:101420000F2C04D822A8019300F082F8019B002F12
:10143000ACD002A8019300F083F8019BC4F1100224
:10144000002AA96BA7DC2246102C44A838BF102222
:1014500000EBC202A2F5C4727800BBE723F01003D0
:101460002B6005F5E870019200F0BCF8019A0CE7DA
:101470002968C8071DD5284621F0010242F0020262
:1014800040F8482B0193002700F052F8019BC9E770
:101490000430A86322A800F03FF86CE723F00803AB
:1014A0002B6005F5A87000F071F813E7012B3FF4ED
:1014B0004DAF0F2C98BF0027B4D967E742F0020266
:1014C00040F8482B00F034F8019B002FAAD02A687E
:1014D0005107A5D5284622F0040240F8D02B0193ED
:1014E00000F02EF8019B99E722A8019300F018F86C
:1014F000019BA3E7000000000000000000000000C6
:1015000000F1340191E838009C46A6464CF8045D91
:1015100090E8FF0FE54600BD90EC210B704700BF3F
:1015200080EC210B704700BF90EC200B704700BF90
:1015300080EC200B704700BFD0EC200B704700BF41
:10154000C0EC200B704700BFF0EC0201F0EC021180
:10155000F0EC0221F0EC0231F0EC0241F0EC02512F
:10156000F0EC0261F0EC0271F0EC0281F0EC02911F
:10157000F0EC02A1F0EC02B1F0EC02C1F0EC02D10F
:10158000F0EC02E1F0EC02F1704700BFE0EC020188
:10159000E0EC0211E0EC0221E0EC0231E0EC02416F
:1015A000E0EC0251E0EC0261E0EC0271E0EC02815F
:1015B000E0EC0291E0EC02A1E0EC02B1E0EC02C14F
:1015C000E0EC02D1E0EC02E1E0EC02F1704700BF98
:1015D000B0FC0181B0FC0191B0FC01A1B0FC01B1F3
:1015E000704700BFA0FC0181A0FC0191A0FC01A1FB
:1015F000A0FC01B1704700BFEC4600B52DE90050DA
:101600002DE9FF1F4FF000032DE90C0001A9FFF7A2
:10161000B9FBDDF840E012B0704700BFEC4600B502
:101620002DE900502DE9FF1F4FF000032DE90C00BC
:1016300001A9FFF7E1FBDDF840E012B0704700BF01
:10164000EC4600B52DE900502DE9FF1F4FF00003D7
:101650002DE90C0001A9FFF7F1FBDDF840E012B025
:10166000704700BFEC4600B52DE900502DE9FF1F83
:101670004FF000032DE90C0001ABFFF7B3FBDDF8E1
:1016800040E012B0704700BFEC4600B52DE90050B5
:101690002DE9FF1F4FF000032DE90C0001AAFFF711
:1016A0002FFCDDF840E012B0704700BF00000000E2
:1016B000037A1BB9437A43B9B02070475A1E0368B6
:1016C00002721A020260180E70474268013B10B4A1
:1016D000437213680321141D01721A0244600260F0
:1016E0005DF8044B180E704700B585B003AB0021C0
:1016F00000930C220B46FFF7B3FB039805B05DF88F
:1017000004FB00BFF0E700BF2DE9F04306460D469D
:1017100085B04FF000082846FFF7CAFFB0280446FE
:1017200000F0B58020F07F0111F0FF0120D000F023
:10173000F003802B7AD0902B36D0A02B49D0B02B41
:101740005CD0C02B00F0898000F0F803D02B0BD1C7
:1017500000F00702013242F4002230460121052345
:10176000FFF776FD0028D6D0092005B0BDE8F0834C
:101770000DF10C090B468700CDF8009030460D2284
:10178000FFF76EFBFFB2039B043760064FF00001CA
:101790004CBFDF1BFF18CDF800900B4630460D22E2
:1017A0000397FFF785FBB6E700F00D030D2BDBD0A9
:1017B00003AF002100F00F020B4600973046FFF701
:1017C0004FFB002100970B4630460D22FFF770FBC0
:1017D000A1E7C3434FF47F6203F007031A410107F7
:1017E00002F47F624FF0000148BF42F480420B4692
:1017F0003046FFF72DFD0028B6D18CE7B1284CD03C
:10180000B2285DD0B32800F08A8000F0FC03B42B2E
:10181000AAD000F007020132012142F400220B4657
:101820003046FFF715FD00289ED174E72846FFF7E4
:101830003FFF24022043B0F5004F95D00401002162
:10184000A2B20B463046FFF703FD00288CD114F4FA
:10185000004F18BF4FF001085DE7C62872D0C728B7
:101860007AD000F0F803C02B00F08980C82800F07F
:10187000A580C9287FF478AF2846FFF719FF00F04C
:101880000F02013200F0F00042EA003265E7B8F1E1
:10189000000F00F08280002067E72846FFF708FF6E
:1018A000024600283FF460AF10F0F0017FF45CAF17
:1018B00030460B46FFF7CCFC00287FF455AF2AE7F3
:1018C00000210DF10C090D220B46CDF80090304699
:1018D000FFF7C6FA2846FFF7EBFE02064FF00204B8
:1018E0000CD5039B00F07F00A040034428460393DF
:1018F000FFF7DEFE030604F10704F2D4039B00F0B9
:101900007F00A04003F5017300211C18CDF8009062
:101910000B4630460D220394FFF7CAFAFBE6284631
:10192000FFF7C6FE00F00F02013200F0F0000121C7
:1019300042EA00320B463046FFF78AFC00287FF46B
:1019400013AFE8E62846FFF7B3FE00F00F020132BE
:1019500000F0F0000321EBE72846FFF7A9FE02465E
:1019600000283FF401AF10F0F0037FF4FDAE3046E5
:101970000421FFF76DFC00287FF4F6AECBE600F003
:101980000F020132032142F420220B463046FFF7BA
:101990005FFC00287FF4E8AEBDE603AC41460E22B2
:1019A000434600943046FFF75BFA009430464146C8
:1019B0000F224346FFF77CFA4046D6E62846FFF75B
:1019C00077FE00F0F00200F00F031032013343EA1B
:1019D0000232C2E610B5C36C84B003205A688DF899
:1019E0000C00DC7912020833084601A901928DF837
:1019F0000D400293FFF788FE04B010BD08B5FFF755
:101A000081FE806C08BD00BF08B5FFF77BFEC36C8C
:101A1000D87903EB8000083008BD00BF08B502F09C
:101A20006FFF00BF08B502F06BFF00BF00000000B1
:101A3000844641EA000313F0030349D1403A23D31B
:101A40000B6803604B6843608B688360CB68C3603E
:101A50000B6903614B6943618B698361CB69C36126
:101A60000B6A03624B6A43628B6A8362CB6AC3620E
:101A70000B6B03634B6B43638B6B8363CB6BC363F6
:101A800040304031403ADBD230320BD30B68036038
:101A90004B6843608B688360CB68C3601030103143
:101AA000103AF3D20C3205D351F8043B40F8043B12
:101AB000043AF9D2043208D0D2071CBF11F8013B16
:101AC00000F8013B01D30B8803806046704700BFDC
:101AD000082A13D38B07B1D010F00303AED0C3F1A3
:101AE0000403D21ADB071CBF11F8013B00F8013BCD
:101AF000A4D331F8023B20F8023B9FE7043AD9D344
:101B0000013A11F8013B00F8013BF9D20B78037060
:101B10004B7843708B7883706046704700000000FC
:101B200053B94AB9002908BF00281CBF4FF0FF3144
:101B30004FF0FF3000F03CB882B0EC462DE9005089
:101B400000F01EF8DDF804E002B00CBC704700BFE6
:101B50002DE9F041069C904606460F461D4600F0D2
:101B60002FF808FB01FCA8FB002300FB05C5B21AF7
:101B70002B4467EB03038646C4E90023BDE8F081EC
:101B80002DE9F843089E1746804689461D4600F019
:101B90006FF900FB05F3A0FB074507FB0137B8EB26
:101BA00004043D4469EB0505C6E90045BDE8F8833A
:101BB000704700BF000000000000000000000000AF
:101BC00000292DE9F043C0F2A8800026002BC0F2C6
:101BD0009E8081468E4690469C46174604460D469A
:101BE000002B3DD18A4259D9B2FA82F33BB1C3F1FD
:101BF00020029D4020FA02F29F4015439C40390C80
:101C0000B5FBF1F01FFA87FE01FB10550EFB00F348
:101C1000220C42EA0545AB4209D9ED1900F1FF3229
:101C200080F00B81AB4240F2088102383D44ED1A4E
:101C3000B5FBF1F301FB13550EFB03FEA4B244EA1E
:101C40000545AE4508D9ED1903F1FF3280F0F78064
:101C5000AE4540F2F480023B43EA0043002203E039
:101C60008B420FD900221346341C18BF0124604256
:101C70004FF0000565EB450158405140001969419E
:101C8000BDE8F083B3FA83F2002A40F089808B42EA
:101C900002D3804500F2E2800123E5E712B9012377
:101CA000B3FBF2F7B7FA87F8B8F1000F3BD1ED1BA1
:101CB0004FEA174C1FFA87FE0122B5FBFCF00CFB24
:101CC00010550EFB00F3210C41EA0545AB4207D944
:101CD000ED1900F1FF3102D2AB4200F2C380084699
:101CE000ED1AB5FBFCF30CFB13550EFB03FEA4B27F
:101CF00044EA0545AE4507D9ED1903F1FF3102D29B
:101D0000AE4500F2AD800B4643EA0043ACE75242D9
:101D10006FEA060663EB43035BE7404261EB410178
:101D20004FF0FF3652E707FA08F7C8F1200225FA0C
:101D300002F34FEA174CB3FBFCF11FFA87FE0CFBD2
:101D4000113324FA02F205FA08F50EFB01F92A43D1
:101D5000100C40EA0343994504FA08F407D9DB194B
:101D600001F1FF3078D2994576D902393B44C9EB6D
:101D70000303B3FBFCF00CFB10330EFB00F592B237
:101D800042EA03439D4207D9DB1900F1FF325FD2DB
:101D90009D425DD902383B445D1B40EA01428CE71D
:101DA000C2F1200328FA03F10CFA02FC41EA0C0C00
:101DB0004FEA1C402EFA03F1B1FBF0F51FFA8CF745
:101DC00000FB151129FA03F30EFA02FE07FB05F9D1
:101DD00043EA0E0E4FEA1E4343EA0141894508FAE1
:101DE00002F808D911EB0C0105F1FF3332D2894515
:101DF00030D9023D6144C9EB0101B1FBF0F300FBB6
:101E0000131107FB03F71FFA8EFE4EEA014E7745CA
:101E100008D91EEB0C0E03F1FF3117D2774515D907
:101E2000023BE64443EA0543A3FB0889C7EB0E0ED9
:101E3000CE4509D305D0002216E71046F7E6134633
:101E40000AE794404445F6D2013BF4E70B46E9E744
:101E50001046A1E71D46CEE7014688E7134603E793
:101E6000023B51E702383D443AE700BF0000000062
:101E70002DE9F043002B44D18A42154604464FD940
:101E8000B2FA82F70E464FB1C7F12003B94020FAEB
:101E900003F602FA07F50E4300FA07F42F0CB6FB1F
:101EA000F7F01FFA85FE07FB10620EFB00F1260C0F
:101EB00046EA0243994209D95B1900F1FF3280F0EA
:101EC000EE80994240F2EB8002382B44591AB1FB64
:101ED000F7F307FB13110EFB03FEA4B244EA014122
:101EE0008E4508D9491903F1FF3280F0DA808E451A
:101EF00040F2D780023B43EA004000263146BDE86D
:101F0000F0838B4247D8B3FA83F6002E48D18B4238
:101F100002D3824200F2CF8001203146BDE8F08337
:101F200012B90125B5FBF2F5B5FA85FCBCF1000F3D
:101F300078D1491B2F0C1FFA85FE0126B1FBF7F063
:101F400007FB10110EFB00F2230C43EA01418A4209
:101F500007D9491900F1FF3302D28A4200F2BC804E
:101F60001846891AB1FBF7F307FB13110EFB03FEAA
:101F7000A4B244EA0142964508D9521903F1FF314F
:101F800080F09180964540F28E80023B43EA00400B
:101F90003146BDE8F083002630463146BDE8F08387
:101FA000C6F1200422FA04F5B3402B4321FA04F7CA
:101FB0004FEA1348B7FBF8FC1FFA83F908FB1C77BC
:101FC00020FA04FE01FA06F509FB0CF44EEA0505B9
:101FD0004FEA154E4EEA0747BC4202FA06F204D910
:101FE000FF180CF1FF3168D38C463F1BB7FBF8F4A8
:101FF00008FB147709FB04F9ADB245EA07418945AE
:1020000004D9C91804F1FF355DD32C4644EA0C44C9
:10201000A4FB0223C9EB0101994249D345D02046D4
:1020200000266BE7CCF1200405FA0CF521FA04F345
:102030002A0CB3FBF2F61FFA85FE02FB163820FAD3
:1020400004F701FA0CF10EFB06F90F433C0C44EACD
:102050000843994500FA0CF407D95B1906F1FF31E2
:1020600038D2994536D9023E2B44C9EB0303B3FB62
:10207000F2F002FB10330EFB00F1BFB247EA03435C
:10208000994207D95B1900F1FF3721D299421FD934
:1020900002382B441746591A40EA06464EE71046C6
:1020A00014E7134627E70B4670E7B0409042B6D2DC
:1020B000601E002622E7304620E7BC4294D9ACF1EE
:1020C000020C1F4491E789459FD9023C19449DE7C2
:1020D0003846DFE70E46C8E70238294441E700BF2B
:1020E000704700BF0000000000000000000000007A
:1020F000FEE700BF0000000000000000000000003C
:1021000072B6334C84F30988022383F31488BFF337
:102110006F8F01F0DDFC2F492F4A91420CD2C8434A
:10212000024422F0030204320B460A444FF05531B8
:1021300043F8041B9342FBD12849A1420DD2284AFF
:10214000081D121A22F0030204320B460A444FF013
:10215000553143F8041B9342FBD1224A224B9A4249
:102160000DD2D043214918440B4620F0030004301F
:10217000084453F8041B834242F8041BF9D11C495C
:102180001C4A91420BD2C843024422F0030204329B
:102190000B460A44002143F8041B9342FBD1164D21
:1021A000164CFFF79DFFAC4204D254F8043B98470D
:1021B000AC42FAD3124D134CFDF78AFFAC4204D265
:1021C00054F8043B9847AC42FAD3FFF791FF00BFA5
:1021D000000800200000002000040020000400206F
:1021E00003080020000800206C100020A8764000A2
:1021F00070100020681C0020D0004000D00040007B
:10220000D0004000D00040000000000000000000AE
:10221000FEE700BF0000000000000000000000001A
:1022200000F04EFA00DF00BF0000000000000000D8
:10223000EFF30983203383F30988002383F31188A4
:10224000704700BF00000000000000000000000018
:1022500008B50A4A0A4B002199600720DA6010216C
:1022600000F09EF80A204FF4007100F099F8BDE8E4
:1022700008400B20802100F093B800BF0000FA0551
:1022800000ED00E000000000000000000000000081
:10229000202383F31188174B5B6813F4006319D074
:1022A000EFF30983A3F1200282F30988124A4FF069
:1022B0008070916943F8040C106871B1D16982682B
:1022C00089688A4294BF002201227AB10B4A43F8FE
:1022D000082C704783F311887047D1698268896838
:1022E0008A4234BF00220122002AEFD1044A43F877
:1022F000082C704700ED00E08811002021224000EA
:102300002422400000000000000000000000000047
:1023100008B5202383F3118800F09AF8002383F393
:102320001188BDE80840FFF7B3BF00BF0000000000
:102330002DE9F04FC1F80CD0D0F80CD0BDE8F08FEB
:10234000002383F311882846A04700F079FA7047EC
:1023500020F0030202F1604270B402F5614200F025
:102360000304D2F80053E4004309FF26A6409B0073
:10237000A14025EA0605012403F1604300F01F0097
:1023800004FA00F0294303F56143C2F8001370BC5E
:10239000C3F88001186070470000000000000000D2
:1023A00020F0030303F1604303F56D4300F00300E5
:1023B00010B4C0009A69FF24844022EA04028140DC
:1023C000114399615DF8044B704700BF00000000A5
:1023D000024B034ADB699A61FEE700BF88110020C7
:1023E00050704000000000000000000000000000ED
:1023F00000B583B0FFF72CFF00F0CAF800F050F8EA
:1024000000F0AEFB00F0E4FB40210B4800F080F947
:102410000A490122C8610023027783F3118862B65A
:102420000748C96988610093C021064B064800F03F
:1024300097F903B05DF804FB7010002088110020AC
:1024400058704000D1234000B81000200000000068
:10245000114A38B59369D169002BC4BF03F1FF332A
:1024600093610A6A0D4C01320A62E2682368013204
:10247000A342E2600ED09D68013D9D6055B91A6887
:10248000D9681869DD6022605460884723689A68BB
:10249000002AF4D038BD00BF881100207811002038
:1024A000044B4FF0FF3100225B601B609960DA60E3
:1024B000704700BF781100200000000000000000FD
:1024C00010B40D4C03612368C2609A68914204D92C
:1024D0001B68891A9A688A42FAD35A68A342036031
:1024E000426058601060816002D09A68511A996009
:1024F0005DF8044B704700BF781100200000000019
:10250000074A0368934203D0996882680A449A6034
:1025100042680021136003685A60C160704700BFC1
:102520007811002000000000000000000000000002
:10253000037F10B40D2B11D8DFE803F02010100733
:10254000100B101010101010100B426A936801331A
:10255000936090E80C001A60026853604FF0FF34FB
:1025600000228168074B446202771B689A688A429E
:10257000FBD25A6803604260586010605DF8044BFB
:10258000704700BF8811002000000000000000001C
:10259000044B002114225B601B605B611B6199602E
:1025A0009A617047881100200000000000000000C0
:1025B00010B4044600228168074B02771B689A68B2
:1025C0008A42FBD25A682046236062605C601460D5
:1025D0005DF8044B704700BF881100200000000028
:1025E000084B70B41A68D969146814260125087755
:1025F0009E616360DA6115771C60104670BCFFF75E
:1026000097BE00BF881100200000000000000000FD
:1026100030B54B1C87B012D005460C4C01A8E369BD
:102620000B4AFFF74DFF2846FFF7DAFF049B13B173
:1026300001A8FFF765FFE369586A07B030BDFFF7EF
:10264000CFFF024CE369586A07B030BD8811002003
:1026500031254000000000000000000000000000E4
:10266000154BF0B4DE69846805464162B068844267
:102670000CD800222A771B689A689442FBD95A68C2
:102680002B606A605D601560F0BC70471A460021DF
:102690003177126891688842FBD95468012786E82F
:1026A000140056602660DD612F7731462846F0BC65
:1026B00014229A61FFF73CBE881100200000000040
:1026C000104AF0B51068D46905684FF0140E012760
:1026D0000026A1680346C2F818E015606A60D06160
:1026E0000777267700E01B689A688A42FBD25A680F
:1026F0002146236062605C601460BDE8F040FFF733
:1027000017BE00BF8811002000000000000000007C
:10271000F0B50F4C0022666900F12C054FF0020C59
:102720004FF0010E00F128074661816004610164E9
:10273000606180F81CC080F81EE04277C26382634B
:1027400002628261306187620563C562F0BD00BFCD
:1027500088110020000000000000000000000000C0
:102760002DE9F84F1E4696460446202383F3118830
:10277000194B243947185A69DFF860B0C7604650D2
:102780000A99002500F12C0600F128084FF0020AF2
:102790004FF001097960C7F820B029460361C0F8FD
:1027A00008E04261C0F840E0586180F81CA080F861
:1027B0001E904577C5638563056285611061C0F829
:1027C00028800663C662FFF74BFF2B4683F3118810
:1027D0002046BDE8F88F00BF88110020412340004B
:1027E00008B50146202383F311880620FFF710FF68
:1027F000002383F3118808BD0000000000000000E2
:1028000038B50E4BDC69254655F8283F6062AB426F
:1028100007D01A681846A262FFF7CAFEA36AAB4245
:10282000F7D1637F9B0704D1226963691A6122692A
:1028300053610E20BDE83840FFF7D2BE881100205A
:10284000202383F31188FFF7DBBF00BF00000000E7
:102850000023406000608360704700BF00000000FC
:1028600008B5836B027F1943082A81630BD0092ABC
:1028700000D008BD436A19408B42FAD1FFF798FE99
:102880000023436208BD436A1942F7D108BD00BF67
:1028900070B504680546A0420E4607D0A16860687E
:1028A0003143FFF7DDFF2468A542F7D170BD00BFBB
:1028B00071B10246084B10B4DB690D205A625468AE
:1028C00083E81400536023605DF8044BFFF7A0BE5B
:1028D0004FF0FF30704700BF88110020000000005B
:1028E00010B40A44002484600261406000604161C9
:1028F0008161C160C3615DF8044B70470000000056
:10290000034640699A6910B590429A6818D001321E
:10291000441C5C619A6001701A6959691868914297
:1029200024BFDA685A61984208D002681A6053607E
:10293000FFF73EFE00234362184610BD002010BD85
:10294000002AE4D06FF0030010BD00BF00000000BB
:1029500070B520230E46044683F31188C3693BB14A
:10296000984705E020463146FFF7A2FF002813DB19
:10297000A568002DF6D0A2692169531C8B42A36182
:1029800005F1FF3528BFE368A560107828BFA36173
:10299000002383F3118870BD2B4683F3118870BD2B
:1029A0002DE9F0471E46044689469246D0F81C8021
:1029B000202383F311880027B8F1000F07D02046A9
:1029C000C04704E020463146FFF772FFD0B9A56842
:1029D000002DF7D0A369013D5A1CA261A5601B78A8
:1029E00009F8013B2369A2699A4224BFE368A36105
:1029F000002383F311880137BA4506D0202383F3DF
:102A00001188D9E72B4683F311883846BDE8F08753
:102A100010B48C1804614060006082604161816183
:102A2000C160C3615DF8044B704700BF0000000047
:102A3000F8B504460F461646202383F3118805E0B7
:102A400020463146FFF734FF002817DBA568002D2C
:102A5000F6D06369013D5A1C6261A5601F7023694D
:102A600062699A4224BFE3686361E3690BB120465F
:102A70009847002383F311881846F8BD2B4683F34B
:102A80001188F8BD000000000000000000000000F8
:102A900038B5826943699342836818D00569013368
:102AA000511CA94283608161147828BFC368026801
:102AB00028BF8361824208D003461168104619601E
:102AC0004B60FFF775FD00234362204638BD002BA5
:102AD000E4D06FF0020038BD0000000000000000EC
:102AE0002DE9F84F9A4604460E461746D0F81C903A
:102AF000202383F311884FF00008A56806F1010B2D
:102B00006A1E0DB36369A2605A1C626132781A7042
:102B1000236962699A4224BFE3686361B9F1000FD7
:102B200001D02046C847002383F31188013F08F1F4
:102B3000010812D0202383F311885E46A56806F1B0
:102B4000010B6A1E002DDDD120465146FFF7B0FE75
:102B50000028D2D02B4683F311884046BDE8F88F79
:102B6000054A064B0648074922F0070223F00703EF
:102B700002600B60704700BF6F1C002000800020C7
:102B8000AC110020A811002000000000000000008F
:102B900010B4202383F31188094C0A4B226819686A
:102BA000C31D23F00703891A8B429DBF9B18236026
:102BB00010460020002383F311885DF8044B704712
:102BC000AC110020A811002000000000000000004F
:102BD000044B0549002203F1100019609A60DA6085
:102BE000FFF736BEB0110020912B4000000000001E
:102BF00008B500F0BDF8044800F0B2F900F058F84C
:102C0000BDE8084000F06CBF2074400000000000E8
:102C1000806BB0FA80F04009704700BF00000000F0
:102C20008069B0FA80F04009704700BF00000000E2
:102C30000246202383F31188002180680B469160AF
:102C400083F31188704700BF0000000000000000FF
:102C50001030FFF7A5BE00BF00000000000000001C
:102C600010304FF0FF33FFF79BBE00BF00000000A5
:102C70003030FFF735BF00BF00000000000000004B
:102C800030304FF0FF33FFF72BBF00BF00000000D4
:102C90001030FFF75DBE00BF000000000000000024
:102CA0003030FFF7C5BE00BF00000000000000008C
:102CB00000F05EBA0000000000000000000000000C
:102CC00070B5044615460D4A002640F8042B012233
:102CD0000B466060227304F1100004F15001A660FD
:102CE0001022FFF7FDFD2B4604F1300004F16001D6
:102CF0001022BDE87040FFF78BBE00BF607040003F
:102D000010B52023044683F3118800F061FA0223F2
:102D10002373002383F3118810BD00BF000000005F
:102D200038B5836904460D463BB1294604F11000CD
:102D3000FFF7E6FD00280FDB38BD8268194642F038
:102D4000040282600430FFF7A3FD294604F110005D
:102D5000FFF7D6FD0028EFDAA368201D43F08003BB
:102D6000A3600021BDE83840FFF792BD00000000DD
:102D700008B500F025F80B200821FFF711FB074BE1
:102D800007491B68074AA1FB03139B09013B00206D
:102D9000072153609060116008BD00BF000800204B
:102DA000D34D621010E000E00000000000000000C1
:102DB00000F086B8000000000000000000000000E5
:102DC000354910B40B6B03F00303022B3ED0032BE9
:102DD0002BD0012B17D0314B31485B691A064CBF01
:102DE0004FF400434FF4FA4303602B490A6BC2F3DC
:102DF0000212072A22D00A6B5DF8044BC2F30212BA
:102E0000D340036070470B6A254813F0807338D1B4
:102E1000244C04600A6AC2F30112022A31D0032A48
:102E20002DD0012A33D02346DFE71D4800231A495D
:102E300003600A6BC2F30212072ADCD11A4A5DF85A
:102E4000044BA2FB03235B08036070470B6ADB01A2
:102E50001AD41348134A02600B6AC3F30113012BFF
:102E600018D01249022B08BF0A460B4B996A9B6A7D
:102E7000C1F30A4101FB0222DBB2B2FBF3F30360B0
:102E8000B3E70A4B0360B0E7084A0548EDE7084B93
:102E90000360AAE7064AE8E700040E4010140E405B
:102EA0000008002000093D00ABAAAAAA001BB70039
:102EB00000127A0000000000000000000000000086
:102EC0001C4B30B41A461C4C1C481D494FF400756D
:102ED0002560C3F8E4001962936E9B03FCD5154985
:102EE0008B6E144ADD07FBD51146164B93628B6E31
:102EF000104A9C07FBD51146136B23F0700343F077
:102F0000100313638B6E0B4A1807FBD5114612236F
:102F100013638B6E074A1B07FBD50B480B4B0C4901
:102F200000254FF4E05415601461C2F8E40030BC91
:102F30005960704700040E40000A0E4000434D5097
:102F4000090837010300202001434D5050140E4062
:102F5000F120F03000000000000000000000000040
:102F600070B4284B284C294A0121C3F8E440196168
:102F7000C3F8E4208168264ACC434FF0FF33516602
:102F80001466136001680024916345682149EE438B
:102F90001561566153625364536514675467C2F8F0
:102FA000A0304569EE434D660E660B60C5688D63C3
:102FB0000569EE430D614E614B624B644B650C67D6
:102FC0004C67C1F8A030016ACD43C2F86414C2F85E
:102FD0006054C2F800348169C2F83814C169C8432A
:102FE000C2F81014C2F81404C2F82434C2F84434ED
:102FF000C2F85434C2F87044C2F87444C2F8A03421
:1030000070BC704700040E4000434D5001434D50CA
:10301000000E0E4000100E400000000000000000F6
:1030200002F01F02072A08D8DFE802F010080D108E
:10303000070D09044166016101657047016301667E
:1030400001614165704701664161704741664161B8
:10305000704700BF000000000000000000000000FA
:10306000014B02229A60704700060E4000000000EB
:10307000014B02229A60704700080E4000000000D9
:1030800070B5056F06466C69E10726D42B699B076E
:1030900001D5A0072CD414F0E0041DD0A4B214F084
:1030A000200F0CBF00228022210648BF42F02002E0
:1030B000630648BF42F04002202383F31188B368BF
:1030C000301D1A43B2600021FFF7E2FB002383F3B7
:1030D00011884FF480732B6070BD202383F3118817
:1030E000A969C9B2FFF71CFE002383F31188CDE75D
:1030F000202383F3118806F13000FFF7C9FC002874
:1031000004DBE861002383F31188C4E7B368301D52
:1031100043F00803B3600021FFF7BAFB0223EB6022
:10312000F0E700BF00000000000000000000000009
:1031300008B50348FFF7A4FFBDE80840FFF7A8B8AB
:10314000D01100200000000000000000000000007E
:1031500008B50348FFF794FFBDE80840FFF798B8AB
:1031600044120020000000000000000000000000E9
:1031700070B50D4D002128460C4AFFF7A1FD0C4CFF
:103180000C4B4FF4C0620C4E5A6000211A66204668
:103190000A4A2E67FFF794FD094B0A490C22216762
:1031A0005A601A6670BD00BFD01100206130400027
:1031B00044120020000E0E4000060E407130400008
:1031C00000100E4000080E4000000000000000004B
:1031D00070B5037B204D0446002918BF0D46012B16
:1031E00016D0246FFFF7ECFD1C4A2B6812681B01F8
:1031F000B2FBF3F368684FF0FF364FF48675502149
:10320000E322E6602560236260602160A26070BDF9
:10321000134B984211D0134B9842E2D1124B1348F2
:10322000134A4FF40071C3F8E40019610920C0216A
:10323000C3F8E420FFF78CF8D3E70B4B0B480C4A9C
:103240004FF48071C3F8E40019610820C021C3F86D
:10325000E420FFF77DF8C4E79070400000080020EC
:10326000D01100204412002000040E4000434D50B5
:1032700001434D500000000000000000000000006D
:1032800018B3012822D0022822D0032822D00428F3
:1032900024D0052820D0062822D0072822D00828AC
:1032A00022D0092823D00A2824D00B2825D00C2886
:1032B00026D00D2827D00E2805D00F2814BF0020B7
:1032C0004FF4707070474FF460707047082070477B
:1032D00010207047182070475020704740207047DA
:1032E00060207047702070474FF4007070474FF4B3
:1032F000107070474FF4207070474FF43070704773
:103300004FF4407070474FF4507070470000000059
:1033100070B4084B084E094C4FF0005501210022B3
:10332000C3F8E4601D61C3F8E440016070BC426012
:10333000704700BF00040E4000434D5001434D5004
:103340004368090401F47021120292B20B431A433C
:103350004260704700000000000000000000000014
:1033600070B544680646C4F3072401346400B1FB19
:10337000F4F431483149224600F042FC002C3CD0A4
:103380002F4A944218D875687368C5F303459806A8
:1033900005D57368190647D473685A0611D4294AAB
:1033A00004EB8404E4002846A2FB0434FFF768FF22
:1033B000A40C84422BD870BD1F48234900F020FC88
:1033C000E1E773685B06F6D52846FFF759FF04EB83
:1033D00044011C4A8900A2FB0131B0EB914FEAD2B3
:1033E00004EB8404E400A2FB0432BDE87040034611
:1033F000920C1148154900F003BC0F4814490122F2
:1034000000F0FEFB756873689B0608D470BD224609
:10341000BDE8704003460D49074800F0F1BB7368F2
:10342000C5F303451906B7D503480A4900F0E8FB80
:1034300073685A06C5D4B2E744120020A070400059
:1034400000127A0083DE1B43F870400030714000A8
:10345000C0704000607140000000000000000000EB
:1034600070B50D4600F10C0431B314F8033C062B83
:1034700000F29D80DFE803F07E68573F22040400DD
:1034800014F8026C54F8082C54F80C1C06F00400D4
:10349000C0B2F60751644CBF51661166002840F077
:1034A00081805165062B0CBF11635163013D116191
:1034B00004F10C041160D8D1012070BD14F8040C83
:1034C00000F07EF814F8021C54F8083C54F80C2C58
:1034D000CE075A644CBF5A661A6611F00A0F14BF21
:1034E0001A625A6288075FD4090748BFC3F884206C
:1034F0005A611A6011E014F8021C54F8083C54F8A0
:103500000C2CC9075A644CBF5A661A66196F1143CE
:103510001967596F114359675A60013D04F10C0452
:10352000A3D1012070BD14F8021C54F8083C54F8D3
:103530000C2CC8075A644CBF5A661A66196F186F6C
:10354000014021EA0201E3E714F8021C54F8083CA8
:1035500054F80C2CCE075A644CBF5A661A66196F81
:1035600011431967596F586F014021EA02015967E9
:103570005A60D2E754F80C1C14F8022CC84354F8D3
:10358000083CD20759644CBF596619661A6F1E6F02
:10359000324002401A675A6F5E6F324010405867DF
:1035A0005960BAE711657DE7C3F88020A0E70020E5
:1035B00070BD00BF0000000000000000000000001F
:1035C000222808B515D81F280D4907D801238A6974
:1035D00083401A4093420BD00B6108BDD1F80821FB
:1035E0002038012383401A40934218BFC1F80031AC
:1035F00008BD04483F21044A044B01F089F900BF8B
:1036000000040E40F0714000D07140002472400070
:1036100008B50348ED21034A034B01F079F900BFD7
:1036200090724000B0734000CC7240000000000077
:1036300038B510B34900B2FBF1F2802310210160CC
:103640000360036B042120250824043A002305604D
:103650000460016022FA03F1FF2904D9013322FA40
:1036600003F1FF29FAD8072B0DD80A0242EA0343D7
:10367000194300230361016138BD06486721064AEA
:10368000064B01F045F903488521034A044B01F03C
:103690003FF900BF9072400060724000D872400055
:1036A000E072400000000000000000000000000088
:1036B00008B510B10223036008BD0348B121034AD5
:1036C000034B01F025F900BF907240008073400069
:1036D000CC7240000000000000000000000000006C
:1036E00010B590B10C0622D412F07F4419D1032BEF
:1036F00011D81B0243F4805343EA01410123446083
:103700004160C460C260036010BD0C48C5210C4A12
:103710000C4B01F0FDF80948C821094A0A4B01F099
:10372000F7F80648C721064A084B01F0F1F80348AC
:10373000C621034A064B01F0EBF800BF907240002F
:10374000A0734000CC7240005473400034734000BA
:103750001C7340000000000000000000000000009A
:1037600010B1006BC0B2704708B50348DE21034AB0
:10377000034B01F0CDF800BF907240009073400001
:10378000CC724000000000000000000000000000BB
:1037900008B14163704708B5FFF73AFF0000000029
:1037A00038B59DF8105078B10C0622D412F07F4441
:1037B00018D1032B0FD81B0243EA0141446041603A
:1037C000C460C260456338BD0D484FF482710D4A34
:1037D0000D4B01F09DF80A4840F20711094A0B4BC6
:1037E00001F096F806484FF48371064A084B01F041
:1037F0008FF8034840F20511024A064B01F088F8A1
:103800009072400030724000CC724000547340000F
:10381000347340001C7340000000000000000000F2
:10382000006AC0F340007047000000000000000084
:10383000006AC0F380007047000000000000000034
:10384000006A00F001007047000000000000000066
:1038500008B530B121F4776323F0070343B941621F
:1038600008BD074840F23D11064A074B01F050F8E9
:1038700003484FF49F71034A044B01F049F800BF1D
:103880009072400080724000CC7240006073400033
:1038900008B520B1036843F00203036008BD034884
:1038A0004FF4BC71024A034B01F032F890724000B1
:1038B00040724000CC724000000000000000000098
:1038C000002380E80A0070470000000000000000AC
:1038D0002DE9F04E0C06814605680E464068099FAA
:1038E0006BD412F07F4F934661D1032B9A4654D884
:1038F00010B10120BDE8F08E012F3FD00A98B8B179
:103900000A9AFF231146C9F80420089A0024284681
:103910008A60CF600B700C610221FFF799FF284687
:1039200031465A465346FFF7DBFE2046BDE8F08E8F
:103930002846FFF7D5FEA7B1012F34D04CF2503402
:1039400001E0013C04D02846FFF76AFF0028F8D0C8
:103950002846FFF705FF089B013F03F8010B08937A
:10396000EAD14CF2503401E0013C14D02846FFF774
:1039700067FF0028F8D00020BDE8F08E2846FFF74A
:1039800097FE0A9B002BBBD131465A465346284628
:10399000FFF7A6FED0E7BDE8F08E0B48B8210B4A32
:1039A0000B4B00F0B5FF2846FFF782FEC6E706483E
:1039B000B721064A074B00F0ABFF0348B621034A84
:1039C000054B00F0A5FF00BFD0734000C07340005E
:1039D00054734000347340001C734000000000002A
:1039E000F0B50F0683B0056844680A9E54D412F0FF
:1039F0007F4F964649D1032B55D814B1012003B00F
:103A0000F0BDBEB1466008984FF0FF0EB060099857
:103A10000127F060089886F800E0376106782846AC
:103A20000096FFF7BDFE28460421FFF711FF204650
:103A300003B0F0BD0898047828460094089CFFF76E
:103A4000AFFE099B661C5F1E10D04CF2503401E0A3
:103A5000013C04D02846FFF7EBFE0028F8D02846AA
:103A600016F8011BFFF794FE013FEED12846FFF741
:103A70000FFF4CF2503401E0013CC0D02846FFF764
:103A8000DFFE0028F8D00020B9E70A484FF486711D
:103A9000094A0A4B00F03CFF064840F20B11064A67
:103AA000074B00F035FF034840F20D11024A054B69
:103AB00000F02EFFD07340001074400034734000BB
:103AC0001C73400054734000000000000000000020
:103AD000024B4FF400425A60FFF76AB950140E408F
:103AE00008B5062204484FF40031FFF799FA034B5A
:103AF0004FF400321A6308BD00120E40000E0E4053
:103B0000162303604FF0FF30704700BF0000000035
:103B100000207047000000000000000000000000CE
:103B20001846704700000000000000000000000080
:103B300000207047000000000000000000000000AE
:103B400010B504460846FFF723F800B110BD0C235A
:103B500023604FF0FF3010BD0000000000000000A7
:103B600010B51446002110463C2200F011FF4FF41E
:103B700000536360002010BD000000000000000042
:103B8000012070470000000000000000000000005D
:103B9000002070470000000000000000000000004E
:103BA000FEE700BF00000000000000000000000071
:103BB0004FF0FF30704700BF000000000000000021
:103BC00070B400F10B063446B1FBF2F502FB15119F
:103BD00001F13003392BC8BF01F13703DBB204F820
:103BE000013D2946002DEFD1321B024401E014F8BB
:103BF000013F00F8013B9042F9D170BC704700BF13
:103C00000EB42DE9F04F064684B00DAB53F8044BCB
:103C10000DF1040800930DF10503C8EB03092178A9
:103C2000631C61B125290FD01C46326830461569E6
:103C30004FF0FF32A8472178631C0029F2D104B06D
:103C4000BDE8F04F03B07047627800982D2A03BF9B
:103C5000A278A31C4FF0010A4FF0000A2E2A03BFDE
:103C60005A78013330272027591C002505E00378B6
:103C70000430227803EB4E050131A2F13003DBB2B0
:103C8000092B0C4605EB850EF3D92A2AEFD02E2AF4
:103C900000904FF000014BD002F0DF034C2B57D0C7
:103CA000A2F14103DBB2192B8CBF00230123A2F147
:103CB00044009E46342800F22381DFE810F0D10052
:103CC00021012101210121012101210121012101E4
:103CD000210121018C00210121012101210121016A
:103CE00016012101210128012101210121012101C8
:103CF000210121012101210121012101EB00D1003C
:103D000021012101210121012101210121012101A3
:103D1000210121018C00210121012101F700210154
:103D200016012101210128010378043003EB4E0123
:103D300014F8012B01EB810EA2F13003DBB2092B49
:103D4000F4D92A2AF0D002F0DF034C2B0090A7D13F
:103D50002378002B00F0D480A3F144020134342AEC
:103D600000F2CD80DFE812F0E000CB00CB00CB000A
:103D7000CB00CB00CB00CB00CB00CB00CB00350081
:103D8000CB00CB00CB00CB00CB00BF00CB00CB00E7
:103D9000FB00CB00CB00CB00CB00CB00CB00CB009B
:103DA000CB00CB00CB009600E000CB00CB00CB00DB
:103DB000CB00CB00CB00CB00CB00CB00CB00350041
:103DC000CB00CB00CB00A200CB00BF00CB00CB00D0
:103DD000FB004FF0010E0822BEF1000F40F08A8078
:103DE000009B181D196800904046FFF7E9FEC34686
:103DF000C8EB0000431E2D1A25EAE575BAF1000F45
:103E000044D19A466D426DB19BF800102D2900F007
:103E1000988032683046136939464FF0FF32984730
:103E20000135F6D1BAF1000FFFF6F9AE32680AF1AA
:103E3000FF3A136930461BF8011B4FF0FF329847D9
:103E4000BAF1FF3FF2D1002D3FF4E9AE33683046BE
:103E50001B6939464FF0FF329847013DF6D1DEE647
:103E6000002B61D1009B19681A1D0029009261DBAB
:103E700040460A22FFF7A4FEC8EB00002D1A431E9D
:103E8000C34625EAE575BAF1000FBAD0B3F1000ACE
:103E9000CCDAD8E7009B48461A68043300938DF8C3
:103EA000042009F1FF332027C346A4E7009B314AD1
:103EB000D3F800B00433BBF1000F08BF9346009362
:103EC0009BF8003029B343B30139584601E04B1C3D
:103ED00004D010F8013F0139002BF8D1CBEB0000E2
:103EE000431E202787E74FF0010E0A22BEF1000F84
:103EF0003FF476AF009B191D0091196874E71A46CC
:103F00004846C3468DF8042009F1FF3373E71022B9
:103F100062E747F6FE71002BD7D125EAE575BAF1C5
:103F2000000F22D020278EE7009B19681A1D002958
:103F300000929DDA2D2349428DF804300DF10500E1
:103F400097E7302F7FF465AF3268304613694FF042
:103F5000FF3298470BF1010B0AF1FF3A59E7009B3A
:103F60001022191D009119683EE74FF0FF3A2027F3
:103F700048E700BF5074400000000000000000004F
:103F8000F8B5114F114E3C463D463846FFF7C0F993
:103F90000B2238460F21FFF7D3F938460C49FFF7BB
:103FA000DFF901233B617B68022243F080037B60E1
:103FB0003A60236BDB07FCD54FF4FA70FEF710FC78
:103FC0002B6D3360F5E700BF0080034078170020B9
:103FD000006CDC0200000000000000000000000097
:103FE00010B5202383F3118802210D48FFF738FA1A
:103FF0000C4C0D4B0D480E4A4FF40021C3F8E40061
:1040000019612046C3F8E4200A490B4AFFF710FB68
:1040100021460A48FFF754FC002383F3118810BDA2
:10402000607440000080014000040E4000434D5089
:1040300001434D50801A06000090D003B8120020B2
:1040400070B586B006AC0E4604F8012D202383F32C
:104050001188012300250146019300943246029500
:104060000348FFF7BDFC2B4683F3118806B070BDF3
:10407000B812002000000000000000000000000056
:1040800070B51C4684B00E46202383F311880025AA
:104090008DE8140001463246029501230548FFF7DA
:1040A00017FCA84218BF2C462B4683F311882046E4
:1040B00004B070BDB8120020000000000000000035
:1040C0002DE9F04FDFF834A283B068206B21002285
:1040D000FFF7B6FF6A463B2106236820FFF7D0FFB3
:1040E0009DF801309DF8000043EA002000B2FCF783
:1040F00081F90022804BFCF7E3F99DF802209DF83E
:104100000330054643EA022000B20C46FCF772F980
:104110000022794BFCF7D4F99DF8053006469DF84E
:1041200004000F4643EA002000B2FCF763F90022C6
:10413000714BFCF7C5F902460B46FCF7C1F9324654
:10414000804689463B4630463946FCF7B9F9024677
:104150000B4640464946FCF701F800F079FA024662
:104160000B46284604F10041FCF7D4FA00F0C8F8E9
:1041700057A3D3E90023FCF7A3F9FCF741FC2A4637
:104180008346234628462146FCF79AF902460B4609
:1041900040464946FBF7E2FF00F05AFA02460B465A
:1041A00030463946FCF7B6FA00F0AAF848A3D3E93E
:1041B0000023FCF785F9FCF723FC6B21074600225E
:1041C0006820FFF73DFF6A46432104236820FFF77C
:1041D00057FF9DF803309DF8020043EA002000B22B
:1041E000FCF708F93CA3D3E90023FCF793FAFCF7AA
:1041F00007FC0646DAF80000FCF70EF99DF80130DE
:1042000004469DF800000D4643EA002000B2FCF78A
:10421000F1F831A3D3E90023FCF77CFAFCF7F0FBBB
:10422000FCF7FAF82EA3D3E90023FCF749F902467C
:104230000B4620462946FBF791FF2BA3D3E9002329
:10424000FCF73EF9044638460D46FCF7E5F828A38E
:10425000D3E90023FCF734F902460B4620462946F1
:10426000FBF77CFFFCF7CCFBCAF80000DAF804008F
:10427000FCF7D2F8044630460D46FCF7CDF818A3FB
:10428000D3E90023FCF71CF902460B4620462946D9
:10429000FBF764FF14A3D3E90023FCF711F90446EC
:1042A00058460D46FCF7B8F811A3D3E90023FCF7F4
:1042B00007F902460B4620462946FBF74FFFFCF75D
:1042C0009FFBCAF804000A20FEF78AFAFDE600BF49
:1042D000FBEB1516DCA54C400000000000606040C0
:1042E0007B14AE47E17A843F5C8FC2F5285CEF3FD8
:1042F0007B14AE47E17A943F0000103F7017002016
:104300002DE9F84FBE4B21F000469E420D468A46ED
:1043100004460FDDBB4B9E4200F3B08000F0AB8043
:10432000B94BBA49BA4CBAF1000FC8BF194620467A
:10433000BDE8F88FB74B9E4200F3BA80A3F1DE735D
:104340009E4240F3A5804FF0FF3B22462B4620467D
:104350002946FCF7B5F802460B4680468946FCF72D
:10436000AFF88FA3D3E9002306460F46FCF7A8F861
:104370008DA3D3E90023FBF7F1FE32463B46FCF761
:104380009FF88BA3D3E90023FBF7E8FE32463B46B8
:10439000FCF796F888A3D3E90023FBF7DFFE32464B
:1043A0003B46FCF78DF886A3D3E90023FBF7D6FE46
:1043B00032463B46FCF784F883A3D3E90023FBF79E
:1043C000CDFE42464B46FCF77BF881A3D3E90023A0
:1043D0008046894630463946FCF772F87EA3D3E919
:1043E0000023FBF7B9FE32463B46FCF769F87CA395
:1043F000D3E90023FBF7B0FE32463B46FCF760F8FA
:1044000079A3D3E90023FBF7A7FE32463B46FCF72E
:1044100057F877A3D3E90023FBF79EFE32463B46CD
:10442000FCF74EF8BBF1FF3F02460B4667D0404613
:104430004946FBF793FE22462B46FCF741F8764EA1
:10444000764B4FEACB0B5E449B44DBE90023FBF742
:1044500083FE22462B46FBF77FFE02460B46D6E93B
:104460000001FBF779FEBAF1000F0446BFF65FAF1B
:1044700001F100415BE700283FF452AF224620469D
:1044800029462B46FBF76AFE04462046BDE8F88F16
:1044900059A3D3E90023FBF761FE0022604BFCF730
:1044A000A5FA00283FF44FAF29462046BDE8F88F13
:1044B00000F0C6F85B4B04469E420D462FDCA3F588
:1044C00050239E4254DC02460B46FBF747FE002277
:1044D000534BFBF741FE002206460F462046294675
:1044E0004FF08043FBF73AFE02460B463046394612
:1044F000FCF710F94FF0000B04460D4625E7404647
:104500004946FBF72BFE22462B46FBF7D9FF024616
:104510000B4620462946FBF71FFE044607E7424BA1
:104520009E421ADC0022414BFBF716FE0022064693
:104530000F46204629463D4BFBF7C2FF0022384B71
:10454000FBF70CFE02460B4630463946FCF7E2F814
:104550004FF0020B04460D46F7E602460B460020DC
:104560003349FCF7D7F84FF0030B04460D46ECE651
:1045700000222B4BFBF7F0FD002206460F4620469B
:104580002946274BFBF7EAFD02460B4630463946E3
:10459000FCF7C0F84FF0010B04460D46D5E600BF0E
:1045A00011DA22E33AAD903FEB0D76244B7BA93F25
:1045B000513DD0A0660DB13F6E204CC5CD45B73FF3
:1045C000FF8300922449C23F0D5555555555D53F9F
:1045D0002F6C6A2C44B4A2BF9AFDDE522DDEAD3F93
:1045E0006D9A74AFF2B0B33F711623FEC671BC3F33
:1045F000C4EB98999999C93F9C7500883CE4377E33
:10460000FFFF0F440000F07FFB21F93FFB21F9BFC2
:10461000182D4454FFFFDB3FD0744000B0744000BD
:104620000000F03FFFFFF23FFF7F03400000F83F34
:104630000000F0BF000000000000000000000000CB
:1046400021F00041704700BF0000000000000000A2
:104650002DE9F0478AB006460F4600F051F8DFF822
:1046600098A004469AF900300D4601330FD0304629
:10467000394600F00DF950B14FF000084FF0000935
:104680003046394642464B46FCF792F920B920465F
:1046900029460AB0BDE8F08716499AF80040012281
:1046A0000023CDE90467CDE90267019100920893E8
:1046B00064B9CDE90689684600F01AF980B1089B13
:1046C0009BB9DDE906010AB0BDE8F08740464946DE
:1046D00042464B46FCF71EF8022CCDE90601EAD112
:1046E00000F036F921230360E9E700F031F9089B77
:1046F0000360E6E7F07440000408002000000000BA
:104700002DE9F041604E0C46B6460E407645054612
:104710000B4600F098800029024676DD5FEA215EB4
:1047200000F08180AEF2FF3EC3F313031EF0010FD1
:1047300043F480135ED100273C46D10F01EB4303C5
:104740004FEA6E0E520016204FF4001165189D427C
:104750004FEAD2764FEA420202DC5B1B6C180F4430
:10476000013806EB43034FEA5101EFD1844620267E
:104770004FF000410AE0A34220D0D50F013E4FEA9E
:10478000510105EB43034FEA420220D09C420CEB5F
:104790000105F0DA002D05EB010C09DBA0461B1B1F
:1047A000954288BF03F1FF334446521B0844E4E7B7
:1047B000BCF1000FF2DB04F10108F0E7954217D8D5
:1047C000002D05EB010C48DB98460023ECE7134372
:1047D00015D140087B1003F17F5303F50013FA074E
:1047E00003EB0E57394648BF40F00040BDE8F0816A
:1047F0001C46C2E7D10F01EB430352009BE7411C6B
:1048000031D000F001031844E3E721F000460643ED
:10481000ECD079BB8E46D30AAEF1150E5205002BB3
:10482000F9D0DC0222D400215B00D80201F10101A1
:10483000FAD5C1F10100C1F1200422FA04F42343A6
:1048400086448A406EE702460B46FBF739FE2A464D
:104850002346FBF783FCBDE8F081BCF1000FAADA28
:10486000A0460023A0E701373046B3E7202401200B
:104870000021E2E702460B46FBF76EFC02460B46C0
:10488000FBF748FFB2E700BF0000F07F0000000028
:1048900010B431F0004408D0114BA1F580129A42B7
:1048A00008D804205DF8044B704718B902205DF861
:1048B000044B704701F1FF41094B01F5E0019942BA
:1048C000EFD9B4F5801F01D20320EBE7054B9C42E2
:1048D00001D00020E6E7B0FA80F04009E2E700BF2F
:1048E000FFFFDF7F0000F07F0000000000000000FD
:1048F00000207047000000000000000000000000E1
:1049000008B5062000F0C4F80120FFF749F900BF00
:1049100000B50A4C0546206885B0C06852B1084C05
:104920008DE81200029207491A462B4600F018F84B
:10493000FFF7E6FF044C2246F2E700BF300C0020F0
:1049400000754000107540005C71400000000000E0
:10495000014B1868704700BF300C002000000000B9
:104960000EB430B582B005AC54F8042B054D0146A9
:1049700023462868019400F0F3F802B0BDE8304007
:1049800003B07047300C0020000000000000000061
:1049900070B4840746D0541E002A41D0CDB20346DD
:1049A00002E0621EE4B3144603F8015B9A07F8D1F3
:1049B000032C2ED9CDB245EA05250F2C45EA054535
:1049C00019D9264603F11002103E0F2E42F8105C52
:1049D00042F80C5C42F8085C42F8045C02F11002F8
:1049E000F2D8A4F1100222F00F0204F00F041032EA
:1049F000032C13440DD91E462246043A032A46F8D6
:104A0000045BFAD8221F22F003020432134404F09C
:104A100003042CB1C9B21C4403F8011BA342FBD10F
:104A200070BC704714460346C2E700BF0000000098
:104A30001F2938B522D8D0F8DC2205460C469AB199
:104A400052F8213083B1012B0CD0591C06D000251F
:104A5000204642F824509847284638BD1623036064
:104A6000012038BD002038BD284600F031F822462C
:104A700001462846BDE8384000F012B8162303600E
:104A80004FF0FF3038BD00BF000000000000000004
:104A9000024B01461868FFF7CBBF00BF300C002067
:104AA00038B5084C00230546084611462360FFF739
:104AB0007FF8431C00D038BD2368002BFBD02B604F
:104AC00038BD00BF641C0020000000000000000092
:104AD000FFF75EB8000000000000000000000000CA
:104AE0004B6E2DE9F0479C040F4692462BD59368F8
:104AF000126833B3804602F1080919E96000B6086C
:104B000017D0043D002401E0A64210D0404655F8DD
:104B1000041F3A4601F084F8431C04F10104F3D168
:104B20000023CAF80830CAF80430BDE8F087DAF884
:104B30000830A3EB8603CAF8083009F10809002BF6
:104B4000DBD10020ECE701F0ABF90023CAF8083014
:104B5000CAF80430BDE8F087000000000000000043
:104B60002DE9F04FABB01C460091934604930190A1
:104B700018B1836B002B00F0E380009B99898AB207
:104B8000900408D418465B6E41F4005223F400539D
:104B90008281436692B2110740F1B280009B1B698B
:104BA000002B00F0AD8002F01A020A2A00F0B48057
:104BB0000DF1680A54460023099302930F930E9354
:104BC000CDF834A09BF80030002B00F0A384252BF7
:104BD00000F0A0845A4601E0252B03D012F8013FD3
:104BE000002BF9D1CBEB0206154696B10E9B0F9A1E
:104BF00001333244072BC4F800B066600F920E9365
:104C000079DD002A40F0AD845446029B0E92334475
:104C100002932B78002B00F05F834FF000030021FC
:104C20004FF0FF3C8DF82F30681C6B7888460D469E
:104C3000664600F1010BA3F12002582A00F2AA8275
:104C4000DFE812F09A02A802A802A202A802A802B3
:104C5000A802A802A802A80254026002A8020D013C
:104C60006C02A80229012F012F012F012F012F0112
:104C70002F012F012F012F01A802A802A802A802CC
:104C8000A802A802A802A802A802A8023D01A80240
:104C9000A802A802A802A802A802A802A802A802C4
:104CA000A8027401A802A802A802A802A8028B0107
:104CB000A802A802A301A802A802A802A802A802AA
:104CC000A802A802A802A802A802C701DA01A80245
:104CD000A802A8022301DA01A802A8024B02A80236
:104CE00088021301F4010702A8020D02A802810044
:104CF000A802A80232020834029B3344029388E7D8
:104D00000198009900F074FDA8B9009B9A8902F0FF
:104D10001A020A2A7FF44CAF009BB3F90E30002B25
:104D2000FFF646AF019800995A46234600F020FD51
:104D30002BB0BDE8F08F4FF0FF302BB0BDE8F08F07
:104D400000F0FEFE19E718F0200F0395B44600F0BE
:104D50000C81049B073323F0070303F10802D3E916
:104D60000067049201234FF00002E1468DF82F20E6
:104D70000025BCF1000FA8BF28F0800856EA070202
:104D800040F0C480BCF1000F00F08083012B00F0E4
:104D9000C580022B00F086835146F20842EA477232
:104DA000F80806F0070307461646303356EA0702AE
:104DB00001F8013DF1D118F0010F079140F0FA839D
:104DC000C1EB0A09E1454E46B8BF664605B101365A
:104DD00018F00203059318BF023618F084030693F7
:104DE00040F0F981039B9D1B002D40F3F481102DB1
:104DF00040F38A842046DDF838E064460F9AC44FB9
:104E000010237146844607E001F1020E01460CF1C1
:104E1000080C103D102D13DD481C103207280F928E
:104E2000CCF80070CCF804300E90EDDD002A40F094
:104E3000C281103D102D11464FF0010ED446EBDC1F
:104E400063467146A4461C462A4407290F922760F0
:104E500065600E9100F346830834481CBEE1584655
:104E600048F004089BF80030E3E618F020030395AF
:104E7000B44662D0049B073323F0070303F1080212
:104E8000D3E90067049200236DE748F040089BF8DF
:104E900000305846CDE648F080089BF80030584670
:104EA000C7E6A3F1300200251BF8013B05EB8505A1
:104EB00002EB4505A3F13002092AF5D9BBE648F01B
:104EC000100818F0200F0395B4468DF82F1000F04D
:104ED0009B800499073121F00701D1E90023164690
:104EE0001F4608310491002A73F10003C0F2A48325
:104EF000BCF1000FA8BF28F0800856EA07029DF811
:104F00002F50E1464FF001033FF43CAF012B7FF4FB
:104F100040AF002F08BF0A2E80F032832AAB303614
:104F200003F8416DC3EB0A0907934BE748F01008FB
:104F300018F020030395B4469CD118F0100240F0FD
:104F4000F78218F0400300F0F382049913460A46F2
:104F500004320E880027049205E748F0100818F084
:104F6000200F0395B4467FF4F4AE049A18F0100FA6
:104F7000134640F0E48218F0400F00F0E0821688FB
:104F80000432002701230492EDE6624A18F0200F54
:104F90000395B4468DF82F10099200F08F80049A83
:104FA000073222F0070202F108010491D2E90067FA
:104FB00018F0010F00F08F8256EA070200F08B8292
:104FC00030228DF8313048F002088DF8302002236D
:104FD000C9E6049A012613684FF000018DF84030AD
:104FE0001346B1460433049310AB03958DF82F108C
:104FF00007934FF0000CEBE618F0200F0395B44632
:105000008DF82F107FF465AF049A18F0100F134637
:1050100040F0A08218F0400F00F09C82B2F90060CE
:105020000433F717049332463B465CE70499782330
:105030008DF83130384BB44630220E680431099374
:10504000039548F00208049100278DF830200223D0
:1050500089E648F020089BF800305846E9E54FF013
:105060000001049A03951368B44607938DF82F1036
:10507000151D002B00F04E83002EC0F22983079EE1
:10508000624630460021CDF810C001F0C9FBDDF8C2
:1050900010C0002800F04E830495C6EB00099DF86F
:1050A0002F504FF0000C8DE61B4A18F0200F03958F
:1050B000B44609928DF82F107FF471AF049918F05F
:1050C000100F0A4640F0418218F0400F00F03D8278
:1050D00004320E88002704926AE79BF800306C2B9C
:1050E00000F0E98248F010085846A2E5049A1346F9
:1050F00015680433002DC0F2E68204939BF800305B
:10510000584696E59BF8003058462B2191E500BFA4
:105110009075400060754000747540009BF8003049
:105120000BF101002A2B00F00F83A3F13002092AB2
:1051300083464FF000063FF67EAD1BF8013B06EBC1
:10514000860602EB4606A3F13002092AF5D946EAA3
:10515000E67670E518F0200F8DF82F1000F08382AE
:10516000049A134604330493029B1168DF171A460E
:105170003B46C1E9002325E558469BF8003000294D
:105180007FF457AD202154E548F0010858469BF8BC
:1051900000304EE503958DF82F10002B00F09C8019
:1051A0008DF840304FF0000301268DF82F3010AB02
:1051B000B14607931DE7019800990DAA0893FFF7E0
:1051C0008FFC002840F08F800E99D4460F9A01F191
:1051D000010E089B1DE60E990F9A481C9DF82F3072
:1051E0006BB101320DF12F03012107280F920E90B0
:1051F0002360616000F33481014608340130059B6F
:1052000063B102320CA9022307280F920E9084E8A2
:105210000A0000F33481014608340130069B802BDC
:1052200000F0D480C9EB0C07002F2BDD102FAB4D05
:105230001FDDA6461023019C07E001F1020C014688
:105240000EF1080E103F102F11DD481C10320728F8
:105250000F92CEF80050CEF804300E90EDDD6ABB10
:10526000103F102F4FF0010C1146D646EDDC74466E
:1052700060463A4407280F9284E8A0000E903BDC79
:105280000834013002EB0903079A07280F9384E8DA
:1052900004020E903DDD002B40F03F8118F0040F1A
:1052A0000E9340F03081029B039A9642ACBF9B194B
:1052B0009B18029300230E93544683E420460099E2
:1052C0000DAA0593FFF70CFC68B90E99D6460F9A04
:1052D00001F1010C059BB5E70F9B23B101980099E3
:1052E0000DAAFFF7FDFB009B9B895B063FF523ADF5
:1052F00002982BB0BDE8F08F002A40F090814B4619
:10530000544607990122CDF86C90CDF83C901A9143
:105310000E9204F1080218F0040F39D003998D1B86
:10532000002D35DD102D40F300820E986C4F1024B7
:10533000DDF80480DDF8009006E000F1020E08467A
:105340000832103D102D10DD411C103307290F933A
:10535000176054600E91F0DD002B2AD1103D102D06
:105360004FF0010E18465246EEDC2B44BEF1070FFB
:105370000F9317605560CDF838E009DD002B92D00F
:10538000019800990DAAFFF7ABFB0028ABD10F9B4A
:10539000029A03998E42ACBF921952180292002BC6
:1053A00088D0019800990DAAFFF79AFB002881D0B8
:1053B00099E7404649460DAAFFF792FB002892D193
:1053C0000E9852460F9B00F1010EBAE7039B9F1BFC
:1053D000002F7FF727AF102F40F3B38120463F4DBA
:1053E00064461023844607E001F1020E01460CF1E9
:1053F000080C103F102F11DD481C103207280F92A7
:10540000CCF80050CCF804300E90EDDDC2B9103F5E
:10541000102F4FF0010E1146D446EDDC6346A44632
:105420001C463A44BEF1070F0F9284E8A000CDF865
:1054300038E000F3EE8008340EF101007146F1E629
:10544000019800990DAA0593FFF74AFB00287FF405
:105450004AAF0E99D4460F9A01F1010E059BC8E799
:10546000002A40F0C580059B002B00F085800CAA27
:1054700002231A9208461B931A465446CBE6002A8A
:1054800040F0A580012011465446C7E603BB18F042
:10549000010F1DD02AAB302203F8412DC3EB0A09BE
:1054A00007938FE4D1460998330943EA0773390912
:1054B00006F00F020F461E46835C09F8013D56EACE
:1054C0000703F1D14B46CDF81C90C3EB0A0979E4F0
:1054D000CDF81CA076E4022345E400BF50754000DF
:1054E00090754000002A40F0D5809DF82F30002BA9
:1054F00000F0AC8001230DF12F0118461B931A46D2
:105500001A91544678E6039A951B002D52463FF7B0
:1055100009AFC8E65D46FFF77CBB019800990DAA6C
:10552000FFF7DEFA00287FF4DEAE52460F9BF2E66C
:10553000049900270A4604320E68049213E40432E8
:105540001E680027012304920DE4166804320492B9
:1055500000272DE51E680433F717049332463B46B7
:10556000C1E4019800990DAAFFF7BAFA00287FF468
:10557000BAAE5446FFF7C0BB0846544611464DE646
:10558000D146CDF814C0304639460A220023FCF734
:10559000C7FA30323046394609F8012D00230A2275
:1055A000FCF7BEFA06460F4656EA0703EBD1DDF8D4
:1055B00014C087E7302B079B87D0013B1A4607931F
:1055C0003023C2EB0A0901F8013CFFF7FBBB01984D
:1055D00000990DAACDF814C0FFF782FA00287FF4D5
:1055E00082AE0E9954460F9A481CDDF814C015E699
:1055F000019800990DAACDF820C0FFF771FA002894
:105600007FF471AE0E9954460F9A481CDDF820C005
:10561000F5E5002A67D101201146544602E60198BB
:1056200000990DAAFFF75CFA00287FF45CAE0E9893
:1056300054460F9A013025E62D25764267EB470741
:105640008DF82F50E1460123FFF793BB059B1146D0
:1056500001205446002B3FF4E5AD0CAA02238AE852
:105660000C001A46D7E518F0100F0BD118F0400FB8
:1056700008D0049A136804320492BDF808201A80F6
:10568000FFF7A0BA049A136804320492029A1A60CF
:10569000FFF798BA019800990DAACDF820C0FFF73E
:1056A0001FFA00287FF41FAE0E9954460F9A481C2B
:1056B000DDF820C092E548F020080BF101009BF8CE
:1056C0000130FFF7B6BA6D4204935846FFF7C8BBE6
:1056D0000798049501F0ACFB9DF82F5081464FF0E0
:1056E000000CFFF76FBB019800990DAACDF814C00C
:1056F000FFF7F6F900287FF4F6AD0E9954460F9A9D
:10570000481CDDF814C08DE50E990F9A0131154F34
:10571000FFF79ABB062E144B28BF4FF0060CE1464C
:1057200004952CEAEC76079363E40E990D4F01F192
:10573000010E1AE6E146049584469DF82F50FFF7C6
:1057400041BB8646094D6CE6049A9BF80130166809
:105750000432002E0492BFF66CAA4FF0FF36FFF71A
:1057600068BA00BF9075400050744000507540000A
:105770002DE9F04588464F6EADF26C4D1997D8F87B
:105780001C70B1F80CE0B1F80EA00797D8F824709F
:105790001AAC4FF480652EF0020E00266946009484
:1057A000049402950595ADF80CE0ADF80EA00997AC
:1057B00006960546FFF7D4F9041E07DB284669461E
:1057C00000F026F9B04218BF4FF0FF34BDF80C309E
:1057D0005B0605D5B8F80C3043F04003A8F80C3050
:1057E00020460DF26C4DBDE8F08500BF00000000C2
:1057F00038B52F4B054618680C4610B1836B002B4B
:1058000036D0A28993B218070CD52069A8B113F03D
:1058100001021ED0636900225B42A361A260F0B165
:10582000002038BDD9063AD5580724D4206942F063
:105830000803A3819BB20028E9D103F42072B2F5DA
:10584000007FE4D02846214600F0F2FCA3892069BD
:10585000DDE7990758BF6269A2600028E0D1A389FB
:105860001A06DED543F04003A3814FF0FF3038BD68
:1058700000F066F9C5E7216B49B104F14003994294
:1058800003D0284600F034FAA2890023236320695C
:1058900022F02402002392B284E80900C7E742F014
:1058A000400209232B604FF0FF30A28138BD00BFBA
:1058B000300C00200000000000000000000000008C
:1058C0008B892DE9F0419AB20D46110780463CD4F0
:1058D0006A6843F40063002AAB8165DDAE6A002E7E
:1058E0004BD09BB203F48052002192B2D8F8004012
:1058F000C8F80010002A5BD02A6D5F0705D56968DB
:105900002B6B521A0BB1EB6BD21A4046E96900239C
:10591000B047461C56D0AB892A6923F400639BB27A
:1059200000212A60DA04AB8169603BD4296BC8F896
:10593000004011B305F14003994202D0404600F007
:10594000D7F900202863BDE8F0812E69AEB1910738
:105950002C680CBF6B6900232E60A41BAB600AE0AF
:10596000324623466F6A4046E969B8470028A4EBEF
:105970000004064404DD002CF2DC0020BDE8F081C8
:10598000AB894FF0FF3043F04003AB81BDE8F081BD
:10599000AB892A6923F400639BB2AB81DB046960A5
:1059A0002A60C3D52865C1E7EA6B002A96DCE4E7E4
:1059B00001234046E969B047431C024619D0AB8930
:1059C000AE6A9AE7D8F800100029E1D01D2907D067
:1059D000162905D0AB8943F04003AB81BDE8F081C7
:1059E000AB89296923F400630022AB8185E80600B6
:1059F0009CE7D8F80030002BE1D01D2B01D0162BEE
:105A0000BED1C8F80040B8E7000000000000000068
:105A100010B5044682B008B1836B53B1B1F90C00E4
:105A200008B902B010BD204602B0BDE81040FFF733
:105A300047BF019100F084F80199EFE700000000F2
:105A4000014900F0BDBB00BFC16F40000000000075
:105A50002DE9F04F074635487D68002407F53B7275
:105A600004230321F863C7F8E412C7F8E822C7F853
:105A7000E04283B02C606C60AC606C66EC812C61A1
:105A80006C61AC61AB81214605F15C000822FEF738
:105A90007FFFDFF89CB0BE68DFF898A0DFF8989031
:105AA000DFF8988001230922C5F820B0C5F824A0AA
:105AB000C5F82890C5F82C80ED612146F381B281AC
:105AC00006F15C0034607460B460746634617461C3
:105AD000B46108220193FEF75BFFFD6812200222E9
